:0A0000000C9445000C9400000C94D1
:10000A0000000C9400000C9400000C9400000C9466
:10001A0000000C9400000C9400000C9400000C9456
:10002A0000000C9400000C9400000C9400000C9446
:10003A0000000C9400000C9400000C9400000C9436
:10004A0000000C9400000C9400001027E8036400E0
:10005A000A000100001000011000010000006920E0
:10006A00616D20636F756E74696E67202564000088
:10007A0080C0020004006600020074017A000000D9
:10008A00F894EE27ECBBF1E0FBBFEBBFE5BF8DE0D8
:10009A00A2E0BB27ED938A95E9F780E094E0A0E619
:1000AA00ED930197E9F7ECE7F0E0859195910097D8
:1000BA0061F0A591B59105901590BF01F0010590E9
:1000CA000D920197E1F7FB01F0CFEFE5EDBFE4E018
:1000DA00EEBFC0E6D1E00C947200E0E0EABBEBBBF5
:1000EA00A4E17DD0E0E6F1E0FA93EA93E8E6F0E0F5
:1000FA00FA93EA93F2010E942D030E943A0384E0E4
:10010A000E9495022896A0E6B1E058D0ACE2B1E090
:10011A000E941B0332D0F20131962F01E3CFFFCFA9
:10012A00AA93EBB3EF70AE2FE881E07FEA2BEBBB2B
:10013A0082E08A95F1F7DA9A82E08A95F1F7DA98FD
:10014A0082E08A95F1F776C0AA93A881E9DFE8816F
:10015A00E295E883A881E4DF81E18A95F1F76AC034
:10016A00AA93E881F0E0EC58FE4FE081A981AE0F36
:10017A00EBDF7980688022960895A2E00E94E2026D
:10018A00ACE0E2DFA1E00E94E202E0E06E2E7E2E09
:10019A000895AA93A881AA3011F0791448F0E0E0F2
:1001AA00EA936394A62DDCDFA881AA3009F442C041
:1001BA007394D89AA881C8DFD8983CC0BA93AA93F6
:1001CA001A93A981BA81ED91A983BA831E2FE030CF
:1001DA0019F0A12FDEDFF5CF188123960895AA938F
:1001EA00EAB3E06FEABBD29AD09AD19ADA98D89851
:1001FA00D9989880E881E058E0937601E881E05444
:10020A00E0937701A4E1B0E00E941B030E94E80298
:10021A000E94E8020E94E802A0E282DF81E28A9557
:10022A00F1F7A8E291DFA4E08FDFA5E88DDFA6E071
:10023A008BDFA3DF21960895BA93AA931A930A93A0
:10024A00AA81BB8112960E943203309759F1AA8182
:10025A00BB8114960E9432038F01309761F00230FD
:10026A00E0E01E0798F0F80131978F01AA81BB815F
:10027A001496ED93FC93AA81BB811296ED91FD91A0
:10028A003196FE93EE933197AC81A083AA81BB810C
:10029A000E943203FF232AF0ED91FD913196FE93DD
:1002AA00EE9306C0AA81BB81EFEFFFEFED93FC93BB
:1002BA001981088125960895BA93AA9326970E94D0
:1002CA003F0310E0AC85BD85E0E0F0E0ED93FC93E0
:1002DA00EA89FB893196EA8BFB8B3197E4912E2FC1
:1002EA00E03009F415C1E12FE03039F4253211F478
:1002FA0011E002C00E94EF020AC1E130A9F42532DE
:10030A0019F40E94EF0202C112E040E000E02D322F
:10031A0011F401E0FCC02B3211F44BE2F8C0203298
:10032A0011F440E2F4C002C0E23039F450E013E0C4
:10033A00203311F40068EBC003C0E33009F0E7C0D2
:10034A00203310F02A3308F007C0AAE05A9F502D34
:10035A00E22FE0535E0FDBC0E22FE33649F40E943E
:10036A00F602E889F989A481AA930E94FC02CEC008
:10037A00E33741F40E94F6020E9402030E94C90276
:10038A001E2F0AC0E03761F40E94F6020E9402039F
:10039A000E94D5021E2F086002600F7730E034C039
:1003AA00E43611F0E93611F4046002C0E53731F49D
:1003BA00E4E5F0E0EE83FF8315E00CC0E83511F4C4
:1003CA00086003C0E83709F0A1C0EEE5F0E0EE836B
:1003DA00FF8314E002FF14C00E94F6020E940C037D
:1003EA00AB85AA233AF4EA85FB850E942903EA87AA
:1003FA00FB874DE2403011F01F5F01C00B7F04C044
:10040A000E94F6020E940C0300FD11C0151778F431
:10041A0007FF08C002FF04C00B7F242F115001C040
:10042A0020E301C020E20E94EF025150EFCF312FAA
:10043A0001FF17C03030A1F003FF06C0EE81FF8133
:10044A002591EE83FF8305C0AE81BF812D91AE83D6
:10045A00BF830E94EF02503009F051503150EACF69
:10046A004BC020E3EE81FF810E943603E887F987BB
:10047A00EE81FF813296EE83FF83E885F985AA85AE
:10048A00BB85AE17BF0750F02F5FA885B985EA85EF
:10049A00FB85EA1BFB0BEA87FB87EFCF2A3328F0A1
:1004AA0003FF02C0295F01C0295D04FD1AC0213380
:1004BA0020F4A885B985119709F409C0531710F0DB
:1004CA0000FF01C013C020E207FF0BC020E3006158
:1004DA0002FF07C00B7F4A930E94FC02503009F0CA
:1004EA0051500E94EF02503009F051503150A88506
:1004FA00B985129708F0B5CF00FF08C0503031F027
:10050A005150E0E2EA930E94FC02F8CF10E0E0CEFC
:10051A00AC85BD850E9432030E9446036496089505
:10052A00FF92F82E26970E9441030E9414033097E7
:10053A0019F4EFEFFFEF23C0DE0116960E942503A0
:10054A008D010E941403EE83FF83E0E0E887E987C8
:10055A00DE011A960E9425030E943203FA93EA9357
:10056A001A930A93E1E2F1E0FA93EA93DE011A960A
:10057A00A3DE9F01AE81BF81E0E0EC93F9010E9406
:10058A0048032A96FF900895BA93AA93A991B9911C
:10059A00EE27FF276D91662311F03196FBCF089560
:1005AA00BA93AA93AA27BB27E991F991059000204B
:1005BA0011F01196FBCFFD0108950E94A900A3E056
:1005CA00B0E00C941B03A0E30E94950081E28A9597
:1005DA00F1F708952A93AD85BE85EF85F8890995C7
:1005EA000895E889F9893497E88BF98B0895AD85E0
:1005FA00BE85EF85F88909950895A889B989149661
:10060A000E943203EE83FF83AE81BF810895A889D9
:10061A00B98914960E943203EA87FB870895DE019E
:10062A001C960E9425030E9432030895109639F001
:10063A008AEF90E00197F1F7A8951197C9F7089505
:10064A000024AF0DB01D0895F195E195F04008958D
:10065A006F2F660F660B762F0895ED91FC91119717
:10066A0008950590F491E02D08957A936A93FA9388
:10067A00EA9308955A934A933A932A931A930A93B8
:10068A0008955D814C813B812A81198108810895F1
:00000001FF
