:080000000C942A000C9400008E
:100008000C9400000C9400000C9400000C94000068
:100018000C9400000C9400000C9400000C94000058
:100028000C9400000C9400000C9400000C94000048
:100038000C9400000C9400000C9400000C94000038
:100048000C9400000C9400000C940000F894EE2727
:10005800ECBBF1E0FBBFEBBFE5BF8DE0A2E0BB2747
:10006800ED938A95E9F780E094E0A0E6ED93019797
:10007800E9F7EFE5EDBFE4E0EEBFC0E6D1E00C94B0
:1000880045008898909AEFEFEABBE0E0EBBB02D01E
:10009800FECFFFCFE1E0EBBBADE4B1E00E94620030
:1000A800DF9902C0909901C008C0EBB3EE0FEBBB1B
:1000B800ADE4B1E00E946200F3CF0895109639F0E4
:1000C8008AEF90E00197F1F7A8951197C9F708957D
:00000001FF
